:020000040000FA
:100000000C9462000C948A000C948A000C948A0070
:100010000C948A000C948A000C948A000C948A0038
:100020000C948A000C948A000C948A000C948A0028
:100030000C948A000C948A000C948A000C948A0018
:100040000C948F030C948A000C945D030C9437037A
:100050000C948A000C948A000C948A000C948A00F8
:100060000C948A000C948A000000000024002700F1
:100070002A0000000000250028002B0000000000DE
:1000800023002600290004040404040404040202DA
:100090000202020203030303030301020408102007
:1000A0004080010204081020010204081020000012
:1000B0000008000201000003040700000000000027
:1000C0000000D90311241FBECFEFD8E0DEBFCDBFA3
:1000D00011E0A0E0B1E0E4EAFEE002C005900D927C
:1000E000A833B107D9F721E0A8E3B1E001C01D9220
:1000F000A33EB207E1F710E0C2E6D0E004C02197CA
:10010000FE010E944A07C136D107C9F70E942204A6
:100110000C9450070C940000AF92BF92CF92DF92E4
:10012000EF92FF920F931F93CF93DF936C017B01AC
:100130008B01040F151FEB015E01AE18BF08C0173D
:10014000D10759F06991D601ED91FC910190F081B0
:10015000E02DC6010995892B79F7C501DF91CF9173
:100160001F910F91FF90EF90DF90CF90BF90AF90D5
:100170000895FC01538D448D252F30E0842F90E0AD
:10018000821B930B541710F0CF9608950197089592
:10019000FC01918D828D981761F0A28DAE0FBF2F5B
:1001A000B11D5D968C91928D9F5F9F73928F90E0B1
:1001B00008958FEF9FEF0895FC01918D828D981720
:1001C00031F0828DE80FF11D858D90E008958FEF5D
:1001D0009FEF0895FC01918D228D892F90E0805C26
:1001E0009F4F821B91098F739927089581E491E0B5
:1001F0000E94EA0021E0892B09F420E0822F089573
:1002000080E090E0892B29F00E94F60081110C9487
:1002100000000895FC01A48DA80FB92FB11DA35AA9
:10022000BF4F2C91848D90E001968F739927848F16
:10023000A689B7892C93A089B1898C918370806439
:100240008C93938D848D981306C00288F389E02DDA
:1002500080818F7D80830895EF92FF920F931F938B
:10026000CF93DF93EC0181E0888F9B8D8C8D981369
:100270001AC0E889F989808185FF15C09FB7F89475
:10028000EE89FF896083E889F989808183708064C1
:1002900080839FBF81E090E0DF91CF911F910F910C
:1002A000FF90EF900895F62E0B8D10E00F5F1F4F1B
:1002B0000F731127E02E8C8D8E110CC00FB607FC2A
:1002C000FACFE889F989808185FFF5CFCE010E94B8
:1002D0000A01F1CFEB8DEC0FFD2FF11DE35AFF4F1B
:1002E000F0829FB7F8940B8FEA89FB898081806246
:1002F000CFCFCF93DF93EC01888D8823B9F0AA8903
:10030000BB89E889F9898C9185FD03C0808186FDD0
:100310000DC00FB607FCF7CF8C9185FFF2CF80811F
:1003200085FFEDCFCE010E940A01E9CFDF91CF9189
:100330000895833081F028F4813099F08230A9F05B
:1003400008958730A9F08830C9F08430B1F48091E5
:1003500080008F7D03C0809180008F778093800024
:10036000089584B58F7784BD089584B58F7DFBCFC4
:100370008091B0008F778093B00008958091B00095
:100380008F7DF9CFCF93DF93282F30E0F901E2552D
:10039000FF4F8491F901E656FF4FD491F901EA57D6
:1003A000FF4FC491CC23A1F081110E949901EC2F41
:1003B000F0E0EE0FFF1FE458FF4FA591B491EC91D0
:1003C000ED2381E090E009F480E0DF91CF91089582
:1003D00080E090E0FACF1F93CF93DF93282F30E097
:1003E000F901E255FF4F8491F901E656FF4FD49190
:1003F000F901EA57FF4FC491CC23A9F0162F8111C0
:100400000E949901EC2FF0E0EE0FFF1FEE58FF4F16
:10041000A591B4918FB7F894EC91111108C0D095C3
:10042000DE23DC938FBFDF91CF911F910895DE2BE8
:10043000F8CFCF93DF9390E0FC01E656FF4F249175
:100440008A579F4FFC0184918823D1F090E0880F58
:10045000991FFC01E859FF4FA591B491FC01EE589A
:10046000FF4FC591D49161110EC09FB7F8948C9144
:10047000E22FE0958E238C932881E223E8839FBFAF
:10048000DF91CF9108958FB7F894EC91E22BEC9324
:100490008FBFF6CF1F93CF93DF93182FEB0161E04F
:1004A0000E941902209739F460E0812FDF91CF91EB
:1004B0001F910C94EB01CF3FD10511F461E0F5CF12
:1004C000E12FF0E0E255FF4FE491E33031F140F4E9
:1004D000E130B1F0E230E1F0C038D1057CF7E4CF93
:1004E000E73029F1E83059F1E430B1F7809180002C
:1004F000806280938000D0938B00C0938A0004C0F8
:1005000084B5806884BDC7BDDF91CF911F910895E8
:1005100084B5806284BDC8BDF7CF809180008068BB
:1005200080938000D0938900C0938800EDCF8091A4
:10053000B00080688093B000C093B300E5CF809195
:10054000B00080628093B000C093B400DDCF3FB7AD
:10055000F89480913D0190913E01A0913F01B091AE
:10056000400126B5A89B05C02F3F19F00196A11D9B
:10057000B11D3FBFBA2FA92F982F8827BC01CD01ED
:10058000620F711D811D911D42E0660F771F881F4C
:10059000991F4A95D1F708958F929F92AF92BF927B
:1005A000CF92DF92EF92FF926B017C010E94A70233
:1005B0004B015C01C114D104E104F104B9F00E94C3
:1005C000A702681979098A099B09683E7340810569
:1005D000910580F321E0C21AD108E108F10888EE04
:1005E000880E83E0981EA11CB11CE4CFFF90EF9011
:1005F000DF90CF90BF90AF909F908F900895CF9352
:10060000DF93CEEDD1E060E088810E94EB0160E0F5
:1006100089810E94EB0160E08A810E94EB0160E029
:100620008B810E94EB0160E070E0CB01DF91CF9104
:100630000C94CC02CF93DF93FC0101900020E9F7EA
:100640003197AF01481B590BBC0181E491E00E9436
:100650008C00EC0142E050E062E171E081E491E065
:100660000E948C008C0F9D1FDF91CF9108951F92E7
:100670000F920FB60F9211242F933F934F935F93D6
:100680006F937F938F939F93AF93BF93EF93FF935A
:1006900081E491E00E940A01FF91EF91BF91AF9137
:1006A0009F918F917F916F915F914F913F912F918A
:1006B0000F900FBE0F901F9018951F920F920FB6BC
:1006C0000F9211242F938F939F93EF93FF93E091B9
:1006D0005101F09152018081E0915701F091580150
:1006E00082FD1BC0908180915A018F5F8F73209192
:1006F0005B01821741F0E0915A01F0E0EF5BFE4FA1
:10070000958F80935A01FF91EF919F918F912F9137
:100710000F900FBE0F901F9018958081F4CF1F92FD
:100720000F920FB60F9211242F933F938F939F93A5
:10073000AF93BF938091390190913A01A0913B0111
:10074000B0913C013091380123E0230F2D3758F54B
:100750000196A11DB11D209338018093390190931A
:100760003A01A0933B01B0933C0180913D019091EF
:100770003E01A0913F01B09140010196A11DB11D24
:1007800080933D0190933E01A0933F01B0934001BF
:10079000BF91AF919F918F913F912F910F900FBE7D
:1007A0000F901F90189526E8230F0296A11DB11DEA
:1007B000D2CFE1E4F1E01382128288EE93E0A0E070
:1007C000B0E084839583A683B78384E091E091832E
:1007D000808385EC90E09587848784EC90E0978710
:1007E000868780EC90E0918B808B81EC90E0938BFE
:1007F000828B82EC90E0958B848B86EC90E0978BDB
:10080000868B118E128E138E148E61E083E00E940F
:10081000190261E085E00E94190261E086E00E9411
:10082000190261E089E00E941902EEEDF1E083E037
:10083000808385E0818386E0828389E0838382E30D
:1008400084830895789484B5826084BD84B5816082
:1008500084BD85B5826085BD85B5816085BD80918B
:100860006E00816080936E00109281008091810003
:1008700082608093810080918100816080938100FB
:10088000809180008160809380008091B1008460BD
:100890008093B1008091B00081608093B00080911E
:1008A0007A00846080937A0080917A0082608093DD
:1008B0007A0080917A00816080937A0080917A003A
:1008C000806880937A001092C100E0915101F0910C
:1008D000520182E08083E0914D01F0914E0110823F
:1008E000E0914F01F09150018FEC808310925901FB
:1008F000E0915501F091560186E08083E09153012B
:10090000F0915401808180618083E0915301F091E6
:100910005401808188608083E0915301F0915401FB
:10092000808180688083E0915301F091540180813F
:100930008F7D808360E08AE00E94190260E08BE096
:100940000E94190260E08CE00E9419028CE38093FF
:10095000E20100E010E08AE00E94C201EC018BE0BD
:100960000E94C2017C018CE00E94C201C130D1050D
:1009700009F044C0009709F07CC06091E20170E08A
:1009800090E080E00E94510620E030E048EC52E424
:100990000E94AE0520E030E04FE753E40E94DD0600
:1009A0000E94200670E08091DE010E944A0260E011
:1009B0008091DF010E94EB0160E08091E0010E94E4
:1009C000EB0160E08091E1010E94EB0162E070E0E8
:1009D00080E090E00E94CC020E94FF0285E191E05D
:1009E0000E941A030115110509F4B5CF0E94F60003
:1009F000882309F4B0CF0E940000ADCF813091056B
:100A0000C1F52097B1F56091E20170E090E080E0DF
:100A10000E94510620E030E048EC52E40E94AE050E
:100A200020E030E04FE753E40E94DD060E942006FC
:100A3000C62F60E08091DE010E94EB0160E08091B2
:100A4000DF010E94EB016C2F70E08091E0010E94B9
:100A50004A0260E08091E1010E94EB0162E070E0F7
:100A600080E090E00E94CC020E94FF0281E291E0CF
:100A7000B7CFCE0DDF1D8C0F9D1F0097B1F5609194
:100A8000E20170E090E080E00E94510620E030E05A
:100A900048EC52E40E94AE0520E030E04FE753E41A
:100AA0000E94DD060E942006C62FD0E0BE01809184
:100AB000DE010E944A0260E08091DF010E94EB01AA
:100AC000BE018091E0010E944A0260E08091E10154
:100AD0000E94EB0166E070E080E090E00E94CC02B2
:100AE0000E94FF028CE291E07BCF039709F07ACF5E
:100AF0006091E20170E090E080E00E94510620E009
:100B000030E048EC52E40E94AE0520E030E04FE7D0
:100B100053E40E94DD060E942006C62F60E080910B
:100B2000DE010E94EB01D0E0BE018091DF010E9456
:100B30004A0260E08091E0010E94EB01BE018091D9
:100B4000E1010E944A0262E070E080E090E00E94D1
:100B5000CC020E94FF0281E391E042CF0E94C205D5
:100B60000C94A3060E949C0658F00E94950640F043
:100B700029F45F3F29F00C948C0651110C94D70690
:100B80000C9492060E94B40668F39923B1F355239E
:100B900091F3951B550BBB27AA2762177307840790
:100BA00038F09F5F5F4F220F331F441FAA1FA9F326
:100BB00035D00E2E3AF0E0E832D091505040E69514
:100BC000001CCAF72BD0FE2F29D0660F771F881F75
:100BD000BB1F261737074807AB07B0E809F0BB0B68
:100BE000802DBF01FF2793585F4F3AF09E3F51057C
:100BF00078F00C948C060C94D7065F3FE4F3983E93
:100C0000D4F3869577956795B795F7959F5FC9F764
:100C1000880F911D9695879597F90895E1E0660FE5
:100C2000771F881FBB1F621773078407BA0720F05E
:100C3000621B730B840BBA0BEE1F88F7E0950895C7
:100C40000E94BC0688F09F5798F0B92F9927B7519A
:100C5000B0F0E1F0660F771F881F991F1AF0BA9560
:100C6000C9F714C0B13091F00E94D606B1E00895E2
:100C70000C94D606672F782F8827B85F39F0B93FD4
:100C8000CCF3869577956795B395D9F73EF4909513
:100C90008095709561957F4F8F4F9F4F0895E89491
:100CA00009C097FB3EF490958095709561957F4FB4
:100CB0008F4F9F4F9923A9F0F92F96E9BB27939562
:100CC000F695879577956795B795F111F8CFFAF472
:100CD000BB0F11F460FF1BC06F5F7F4F8F4F9F4FA3
:100CE00016C0882311F096E911C0772321F09EE801
:100CF000872F762F05C0662371F096E8862F70E067
:100D000060E02AF09A95660F771F881FDAF7880F40
:100D10009695879597F9089597F99F6780E870E011
:100D200060E008959FEF80EC089500240A94161661
:100D3000170618060906089500240A9412161306C9
:100D4000140605060895092E0394000C11F4882357
:100D500052F0BB0F40F4BF2B11F460FF04C06F5F73
:100D60007F4F8F4F9F4F089557FD9058440F551F49
:100D700059F05F3F71F04795880F97FB991F61F01D
:100D80009F3F79F087950895121613061406551F94
:100D9000F2CF4695F1DF08C0161617061806991F00
:100DA000F1CF86957105610508940895E894BB27F5
:100DB00066277727CB0197F908950E94F0060C94D7
:100DC000A3060E94950638F00E949C0620F0952309
:100DD00011F00C948C060C94920611240C94D706F6
:100DE0000E94B40670F3959FC1F3950F50E0551F14
:100DF000629FF001729FBB27F00DB11D639FAA2770
:100E0000F00DB11DAA1F649F6627B00DA11D661FBE
:100E1000829F2227B00DA11D621F739FB00DA11DDF
:100E2000621F839FA00D611D221F749F3327A00D99
:100E3000611D231F849F600D211D822F762F6A2F35
:100E400011249F5750409AF0F1F088234AF0EE0F9A
:100E5000FF1FBB1F661F771F881F91505040A9F7C7
:100E60009E3F510580F00C948C060C94D7065F3F92
:100E7000E4F3983ED4F3869577956795B795F79503
:100E8000E7959F5FC1F7FE2B880F911D969587957B
:100E900097F90895EE0FFF1F0590F491E02D099446
:100EA000F894FFCF000000002C018C00B9007901FC
:100EB000EA00C800DC000D0A0042656C6F6B204B35
:100EC000616E616E0042656C6F6B204B69726900E8
:0C0ED0004D616A75004D756E647572000E
:107E0000112484B714BE81FFF0D085E080938100F7
:107E100082E08093C00088E18093C10086E0809377
:107E2000C20080E18093C4008EE0C9D0259A86E02C
:107E300020E33CEF91E0309385002093840096BBD3
:107E4000B09BFECF1D9AA8958150A9F7CC24DD24C4
:107E500088248394B5E0AB2EA1E19A2EF3E0BF2EE7
:107E6000A2D0813461F49FD0082FAFD0023811F036
:107E7000013811F484E001C083E08DD089C08234E0
:107E800011F484E103C0853419F485E0A6D080C0E4
:107E9000853579F488D0E82EFF2485D0082F10E0AE
:107EA000102F00270E291F29000F111F8ED06801E7
:107EB0006FC0863521F484E090D080E0DECF843638
:107EC00009F040C070D06FD0082F6DD080E0C81688
:107ED00080E7D80618F4F601B7BEE895C0E0D1E017
:107EE00062D089930C17E1F7F0E0CF16F0E7DF06D8
:107EF00018F0F601B7BEE89568D007B600FCFDCFD4
:107F0000A601A0E0B1E02C9130E011968C91119780
:107F100090E0982F8827822B932B1296FA010C0160
:107F200087BEE89511244E5F5F4FF1E0A038BF0790
:107F300051F7F601A7BEE89507B600FCFDCF97BE46
:107F4000E89526C08437B1F42ED02DD0F82E2BD052
:107F50003CD0F601EF2C8F010F5F1F4F84911BD097
:107F6000EA94F801C1F70894C11CD11CFA94CF0C13
:107F7000D11C0EC0853739F428D08EE10CD085E9AC
:107F80000AD08FE07ACF813511F488E018D01DD067
:107F900080E101D065CF982F8091C00085FFFCCF94
:107FA0009093C60008958091C00087FFFCCF809118
:107FB000C00084FD01C0A8958091C6000895E0E648
:107FC000F0E098E1908380830895EDDF803219F02E
:107FD00088E0F5DFFFCF84E1DECF1F93182FE3DFCA
:107FE0001150E9F7F2DF1F91089580E0E8DFEE27F6
:047FF000FF270994CA
:027FFE00040479
:00000001FF
